{"abi":[{"type":"constructor","inputs":[],"stateMutability":"nonpayable"},{"type":"fallback","stateMutability":"payable"},{"type":"receive","stateMutability":"payable"},{"type":"function","name":"createPortfolio","inputs":[{"name":"userName","type":"string","internalType":"string"},{"name":"ipfsHash","type":"string","internalType":"string"},{"name":"isPrivate","type":"bool","internalType":"bool"}],"outputs":[],"stateMutability":"nonpayable"},{"type":"function","name":"deleteMyPortfolio","inputs":[],"outputs":[],"stateMutability":"nonpayable"},{"type":"function","name":"donate","inputs":[],"outputs":[],"stateMutability":"payable"},{"type":"function","name":"getMyPortfolio","inputs":[],"outputs":[{"name":"","type":"tuple","internalType":"struct Web3Portfolio.Portfolio","components":[{"name":"ethAddress","type":"address","internalType":"address"},{"name":"ipfsDocumentHash","type":"string","internalType":"string"},{"name":"isPrivate","type":"bool","internalType":"bool"},{"name":"exists","type":"bool","internalType":"bool"},{"name":"createdAt","type":"uint256","internalType":"uint256"},{"name":"lastUpdated","type":"uint256","internalType":"uint256"}]}],"stateMutability":"view"},{"type":"function","name":"getPortfolioByUsername","inputs":[{"name":"userName","type":"string","internalType":"string"}],"outputs":[{"name":"","type":"tuple","internalType":"struct Web3Portfolio.Portfolio","components":[{"name":"ethAddress","type":"address","internalType":"address"},{"name":"ipfsDocumentHash","type":"string","internalType":"string"},{"name":"isPrivate","type":"bool","internalType":"bool"},{"name":"exists","type":"bool","internalType":"bool"},{"name":"createdAt","type":"uint256","internalType":"uint256"},{"name":"lastUpdated","type":"uint256","internalType":"uint256"}]}],"stateMutability":"view"},{"type":"function","name":"owner","inputs":[],"outputs":[{"name":"","type":"address","internalType":"address"}],"stateMutability":"view"},{"type":"function","name":"pause","inputs":[],"outputs":[],"stateMutability":"nonpayable"},{"type":"function","name":"paused","inputs":[],"outputs":[{"name":"","type":"bool","internalType":"bool"}],"stateMutability":"view"},{"type":"function","name":"renounceOwnership","inputs":[],"outputs":[],"stateMutability":"nonpayable"},{"type":"function","name":"totalDonations","inputs":[],"outputs":[{"name":"","type":"uint256","internalType":"uint256"}],"stateMutability":"view"},{"type":"function","name":"totalPortfolios","inputs":[],"outputs":[{"name":"","type":"uint256","internalType":"uint256"}],"stateMutability":"view"},{"type":"function","name":"transferOwnership","inputs":[{"name":"newOwner","type":"address","internalType":"address"}],"outputs":[],"stateMutability":"nonpayable"},{"type":"function","name":"unpause","inputs":[],"outputs":[],"stateMutability":"nonpayable"},{"type":"function","name":"updatePortfolioHash","inputs":[{"name":"userName","type":"string","internalType":"string"},{"name":"newIpfsHash","type":"string","internalType":"string"}],"outputs":[],"stateMutability":"nonpayable"},{"type":"function","name":"updatePortfolioVisibility","inputs":[{"name":"userName","type":"string","internalType":"string"},{"name":"isPrivate","type":"bool","internalType":"bool"}],"outputs":[],"stateMutability":"nonpayable"},{"type":"function","name":"withdraw","inputs":[{"name":"amount","type":"uint256","internalType":"uint256"}],"outputs":[],"stateMutability":"nonpayable"},{"type":"event","name":"DonationReceived","inputs":[{"name":"donor","type":"address","indexed":true,"internalType":"address"},{"name":"amount","type":"uint256","indexed":false,"internalType":"uint256"}],"anonymous":false},{"type":"event","name":"DonationWithdrawn","inputs":[{"name":"owner","type":"address","indexed":true,"internalType":"address"},{"name":"amount","type":"uint256","indexed":false,"internalType":"uint256"}],"anonymous":false},{"type":"event","name":"OwnershipTransferred","inputs":[{"name":"previousOwner","type":"address","indexed":true,"internalType":"address"},{"name":"newOwner","type":"address","indexed":true,"internalType":"address"}],"anonymous":false},{"type":"event","name":"Paused","inputs":[{"name":"account","type":"address","indexed":false,"internalType":"address"}],"anonymous":false},{"type":"event","name":"PortfolioCreated","inputs":[{"name":"owner","type":"address","indexed":true,"internalType":"address"},{"name":"userName","type":"string","indexed":false,"internalType":"string"}],"anonymous":false},{"type":"event","name":"PortfolioDeleted","inputs":[{"name":"owner","type":"address","indexed":true,"internalType":"address"}],"anonymous":false},{"type":"event","name":"PortfolioUpdated","inputs":[{"name":"owner","type":"address","indexed":true,"internalType":"address"},{"name":"userName","type":"string","indexed":false,"internalType":"string"}],"anonymous":false},{"type":"event","name":"PortfolioVisibilityUpdated","inputs":[{"name":"owner","type":"address","indexed":true,"internalType":"address"},{"name":"userName","type":"string","indexed":false,"internalType":"string"},{"name":"isPrivate","type":"bool","indexed":false,"internalType":"bool"}],"anonymous":false},{"type":"event","name":"Unpaused","inputs":[{"name":"account","type":"address","indexed":false,"internalType":"address"}],"anonymous":false},{"type":"error","name":"EnforcedPause","inputs":[]},{"type":"error","name":"ExpectedPause","inputs":[]},{"type":"error","name":"OwnableInvalidOwner","inputs":[{"name":"owner","type":"address","internalType":"address"}]},{"type":"error","name":"OwnableUnauthorizedAccount","inputs":[{"name":"account","type":"address","internalType":"address"}]}],"bytecode":{"object":"0x608080604052346071573315605e575f8054336001600160a01b0319821681178355916001600160a01b03909116907f8be0079c531659141344cd1fd0a4f28419497f9722a3daafe3b4186f6b6457e09080a361137590816100768239f35b631e4fbdf760e01b5f525f60045260245ffd5b5f80fdfe6080604052600436101561001d575b366112c85761001b6112b6565b005b5f3560e01c80632e1a7d4d1461011c578063389432fa146101175780633f4ba83a146101125780635c975abb1461010d578063715018a6146101085780638456cb59146101035780638da5cb5b146100fe57806392af2470146100f9578063a6499de4146100f4578063b5151ed5146100ef578063d01ea122146100ea578063de2ed893146100e5578063e2f402df146100e0578063ed88c68e146100db578063f2fde38b146100d65763f96fa1d00361000e57610ba7565b610b1e565b610a87565b610968565b61094b565b61084d565b610792565b61069c565b610584565b6104ea565b61048a565b610433565b61040f565b6103a3565b610232565b346101e25760203660031901126101e2576004356101386112fc565b8047106101a6576101675f8080808561015760018060a01b035f541690565b5af1610161610c48565b50610c77565b5f546040519182526001600160a01b0316907f84be5dad61c795759fa50da4da9ff0ffc28c522295c26854247b7d22728d8c019080602081015b0390a2005b60405162461bcd60e51b8152602060048201526014602482015273496e73756666696369656e742062616c616e636560601b6044820152606490fd5b5f80fd5b9181601f840112156101e25782359167ffffffffffffffff83116101e257602083818601950101116101e257565b6044359081151582036101e257565b6024359081151582036101e257565b346101e25760603660031901126101e25760043567ffffffffffffffff81116101e2576102639036906004016101e6565b60243567ffffffffffffffff81116101e2577f78a619b7d4293cfcdb95df6442fa7663f9246cd2c0092718ca321ba854b81f27916103736102ab6101a19336906004016101e6565b6103496102b9939293610214565b6102c1611322565b6102cc861515610cb5565b6102d7831515610cf2565b61033b868a209561030f61030a61030660026102fb8b5f52600360205260405f2090565b015460081c60ff1690565b1590565b610d32565b335f908152600460205260409020610328905415610d6f565b610330610c1b565b338152943691610dbb565b602084015215156040830152565b600160608201524260808201524260a082015261036e835f52600360205260405f2090565b610e82565b335f90815260046020526040902055610395610390600154610fee565b600155565b60405191829133958361101c565b346101e2575f3660031901126101e2576103bb6112fc565b5f5460ff8160a01c16156104005760ff60a01b19165f556040513381527f5db9ee0a495bf2e6ff9c91a7834c1ba4fdd244a5e8aa4e537bd38aeae4b073aa90602090a1005b638dfc202b60e01b5f5260045ffd5b346101e2575f3660031901126101e257602060ff5f5460a01c166040519015158152f35b346101e2575f3660031901126101e25761044b6112fc565b5f80546001600160a01b0319811682556001600160a01b03167f8be0079c531659141344cd1fd0a4f28419497f9722a3daafe3b4186f6b6457e08280a3005b346101e2575f3660031901126101e2576104a26112fc565b6104aa611322565b5f805460ff60a01b1916600160a01b1790556040513381527f62e78cea01bee320cd4e420270b5ea74000d11b0c9f74754ebdbfc544b05a25890602090a1005b346101e2575f3660031901126101e2575f546040516001600160a01b039091168152602090f35b602080825282516001600160a01b0316828201528281015160c06040840152805160e0840181905261010094909260a0928491018587015e5f848401860152604081015115156060850152606081015115156080850152608081015184830152015160c0830152601f01601f1916010190565b346101e25760203660031901126101e25760043567ffffffffffffffff81116101e2576105b59036906004016101e6565b906105be611030565b50205f52600360205261067460405f20610663604051916105de83610bd8565b80546001600160a01b03168352604051610606816105ff8160018601611061565b0382610bf9565b602084015261065d610658600283015492600461063a6106268660ff1690565b151560408901908152955b60081c60ff1690565b1515606088018190526003830154608089015291015460a087015290565b6110e2565b51151590565b610678575b60405191829182610511565b0390f35b8051610697906001600160a01b03166001600160a01b03163314611124565b610668565b346101e25760403660031901126101e25760043567ffffffffffffffff81116101e2576106ee7f4742c90534e4d1ff8b4fbfe0d984c62981ab2e96b9c2e12e302279e376c07fc79136906004016101e6565b6106f9929192610223565b90610702611322565b8084205f52600360205260405f20600281018361074f825461072960ff8260081c166110e2565b8454610749906001600160a01b03165b6001600160a01b03163314611164565b60ff1690565b8115159015150361076f575b5050506101a16040519283923396846111a6565b610784919060ff801983541691151516179055565b6004429101555f808361075b565b346101e2575f3660031901126101e2576107aa611030565b50335f52600460205260405f20546107c38115156110e2565b5f52600360205261067460405f206004604051916107e083610bd8565b80546001600160a01b03168352604051610801816105ff8160018601611061565b6020840152610830610827600283015461063161081e8260ff1690565b15156040880152565b15156060850152565b60038101546080840152015460a082015260405191829182610511565b346101e2575f3660031901126101e257610865611322565b335f52600460205260405f205461087d8115156110e2565b5f5260036020525f6004604082208281556001810161089c8154610df1565b90816108f9575b505060028101839055600381018390550155335f908152600460205260408120556108d26103906001546111c7565b337f6415bda4afc884994d8d679542dfb146b8ffc96ecccd076cfe59b76943e49cd25f80a2005b601f821160011461091057849055505b5f806108a3565b610936610946926001601f610928855f5260205f2090565b920160051c82019101610e29565b5f81815260208120918190559055565b610909565b346101e2575f3660031901126101e2576020600254604051908152f35b346101e25760403660031901126101e25760043567ffffffffffffffff81116101e2576109999036906004016101e6565b60243567ffffffffffffffff81116101e2577ffde9bf42e64d10f6d16dd90d35d9af49052d1ebd2128e70f6721ac42d6162274916109de6101a19236906004016101e6565b906109e7611322565b6109fb8387205f52600360205260405f2090565b91610a11610658600285015460ff9060081c1690565b8254610a25906001600160a01b0316610739565b610a30811515610cf2565b6001830191610a3e836111d3565b60208151910120610a50368484610dbb565b6020815191012003610a6f575b5050505060405191829133958361101c565b610a78926111ee565b6004429101555f808080610a5d565b5f3660031901126101e257610a9a611322565b3415610ae957600254348101809111610ae45760025560405134815233907f264f630d9efa0d07053a31163641d9fcc0adafc9d9e76f1c37c2ce3a558d2c529080602081016101a1565b610fda565b60405162461bcd60e51b815260206004820152600d60248201526c2d32b937903237b730ba34b7b760991b6044820152606490fd5b346101e25760203660031901126101e2576004356001600160a01b038116908190036101e257610b4c6112fc565b8015610b94575f80546001600160a01b03198116831782556001600160a01b0316907f8be0079c531659141344cd1fd0a4f28419497f9722a3daafe3b4186f6b6457e09080a3005b631e4fbdf760e01b5f525f60045260245ffd5b346101e2575f3660031901126101e2576020600154604051908152f35b634e487b7160e01b5f52604160045260245ffd5b60c0810190811067ffffffffffffffff821117610bf457604052565b610bc4565b90601f8019910116810190811067ffffffffffffffff821117610bf457604052565b60405190610c2a60c083610bf9565b565b67ffffffffffffffff8111610bf457601f01601f191660200190565b3d15610c72573d90610c5982610c2c565b91610c676040519384610bf9565b82523d5f602084013e565b606090565b15610c7e57565b60405162461bcd60e51b815260206004820152600f60248201526e15da5d1a191c985dc819985a5b1959608a1b6044820152606490fd5b15610cbc57565b60405162461bcd60e51b815260206004820152600e60248201526d557365726e616d6520656d70747960901b6044820152606490fd5b15610cf957565b60405162461bcd60e51b8152602060048201526011602482015270092dcecc2d8d2c84092a08ca640d0c2e6d607b1b6044820152606490fd5b15610d3957565b60405162461bcd60e51b815260206004820152600e60248201526d2ab9b2b93730b6b2903a30b5b2b760911b6044820152606490fd5b15610d7657565b60405162461bcd60e51b815260206004820152601a60248201527f4164647265737320616c726561647920726567697374657265640000000000006044820152606490fd5b929192610dc782610c2c565b91610dd56040519384610bf9565b8294818452818301116101e2578281602093845f960137010152565b90600182811c92168015610e1f575b6020831014610e0b57565b634e487b7160e01b5f52602260045260245ffd5b91607f1691610e00565b818110610e34575050565b5f8155600101610e29565b9190601f8111610e4e57505050565b610c2a925f5260205f20906020601f840160051c83019310610e78575b601f0160051c0190610e29565b9091508190610e6b565b815181546001600160a01b0319166001600160a01b03919091161781559060018201602082015180519067ffffffffffffffff8211610bf457610ecf82610ec98554610df1565b85610e3f565b602090601f8311600114610f6a57826004959360a09593610f05935f92610f5f575b50508160011b915f199060031b1c19161790565b90555b610f4e60028501610f31610f1f6040850151151590565b829060ff801983541691151516179055565b60608301511515815461ff00191690151560081b61ff0016179055565b608081015160038501550151910155565b015190505f80610ef1565b90601f19831691610f7e855f5260205f2090565b925f5b818110610fc257509260019285926004989660a0989610610faa575b505050811b019055610f08565b01515f1960f88460031b161c191690555f8080610f9d565b92936020600181928786015181550195019301610f81565b634e487b7160e01b5f52601160045260245ffd5b5f198114610ae45760010190565b908060209392818452848401375f828201840152601f01601f1916010190565b91602061102d938181520191610ffc565b90565b6040519061103d82610bd8565b5f60a083828152606060208201528260408201528260608201528260808201520152565b5f929181549161107083610df1565b80835292600181169081156110c5575060011461108c57505050565b5f9081526020812093945091925b8383106110ab575060209250010190565b60018160209294939454838587010152019101919061109a565b915050602093945060ff929192191683830152151560051b010190565b156110e957565b60405162461bcd60e51b8152602060048201526013602482015272141bdc9d199bdb1a5bc81b9bdd08199bdd5b99606a1b6044820152606490fd5b1561112b57565b60405162461bcd60e51b81526020600482015260116024820152705072697661746520706f7274666f6c696f60781b6044820152606490fd5b1561116b57565b60405162461bcd60e51b81526020600482015260136024820152722737ba103837b93a3337b634b79037bbb732b960691b6044820152606490fd5b916020916111bf91959495604085526040850191610ffc565b931515910152565b8015610ae4575f190190565b90610c2a6111e79260405193848092611061565b0383610bf9565b90929167ffffffffffffffff8111610bf4576112148161120e8454610df1565b84610e3f565b5f601f82116001146112515781906112429394955f926112465750508160011b915f199060031b1c19161790565b9055565b013590505f80610ef1565b601f19821694611264845f5260205f2090565b915f5b87811061129e575083600195969710611285575b505050811b019055565b01355f19600384901b60f8161c191690555f808061127b565b90926020600181928686013581550194019101611267565b600254348101809111610ae457600255565b60405162461bcd60e51b815260206004820152600c60248201526b125b9d985b1a590818d85b1b60a21b6044820152606490fd5b5f546001600160a01b0316330361130f57565b63118cdaa760e01b5f523360045260245ffd5b60ff5f5460a01c1661133057565b63d93c066560e01b5f5260045ffdfea2646970667358221220eb1537ffe5e82991711e3cd6b51fb74b73f8e2c9e14654d39e453ad1c653f9b264736f6c634300081e0033","linkReferences":{}},"methodIdentifiers":{"createPortfolio(string,string,bool)":"389432fa","deleteMyPortfolio()":"d01ea122","donate()":"ed88c68e","getMyPortfolio()":"b5151ed5","getPortfolioByUsername(string)":"92af2470","owner()":"8da5cb5b","pause()":"8456cb59","paused()":"5c975abb","renounceOwnership()":"715018a6","totalDonations()":"de2ed893","totalPortfolios()":"f96fa1d0","transferOwnership(address)":"f2fde38b","unpause()":"3f4ba83a","updatePortfolioHash(string,string)":"e2f402df","updatePortfolioVisibility(string,bool)":"a6499de4","withdraw(uint256)":"2e1a7d4d"},"id":22}